{
  "_format": "hh-sol-artifact-1",
  "contractName": "StoreFront2",
  "sourceName": "contracts/StoreFront1.sol",
  "abi": [
    {
      "inputs": [],
      "stateMutability": "nonpayable",
      "type": "constructor"
    },
    {
      "anonymous": false,
      "inputs": [
        {
          "indexed": true,
          "internalType": "address",
          "name": "owner",
          "type": "address"
        },
        {
          "indexed": true,
          "internalType": "address",
          "name": "approved",
          "type": "address"
        },
        {
          "indexed": true,
          "internalType": "uint256",
          "name": "tokenId",
          "type": "uint256"
        }
      ],
      "name": "Approval",
      "type": "event"
    },
    {
      "anonymous": false,
      "inputs": [
        {
          "indexed": true,
          "internalType": "address",
          "name": "owner",
          "type": "address"
        },
        {
          "indexed": true,
          "internalType": "address",
          "name": "operator",
          "type": "address"
        },
        {
          "indexed": false,
          "internalType": "bool",
          "name": "approved",
          "type": "bool"
        }
      ],
      "name": "ApprovalForAll",
      "type": "event"
    },
    {
      "anonymous": false,
      "inputs": [
        {
          "indexed": false,
          "internalType": "address",
          "name": "_owner",
          "type": "address"
        },
        {
          "indexed": false,
          "internalType": "uint256[]",
          "name": "_tokens",
          "type": "uint256[]"
        },
        {
          "indexed": false,
          "internalType": "uint256",
          "name": "_price",
          "type": "uint256"
        }
      ],
      "name": "Buy",
      "type": "event"
    },
    {
      "anonymous": false,
      "inputs": [
        {
          "indexed": true,
          "internalType": "address",
          "name": "from",
          "type": "address"
        },
        {
          "indexed": true,
          "internalType": "address",
          "name": "to",
          "type": "address"
        },
        {
          "indexed": true,
          "internalType": "uint256",
          "name": "tokenId",
          "type": "uint256"
        }
      ],
      "name": "Transfer",
      "type": "event"
    },
    {
      "inputs": [],
      "name": "_totalSupply",
      "outputs": [
        {
          "internalType": "uint256",
          "name": "",
          "type": "uint256"
        }
      ],
      "stateMutability": "view",
      "type": "function"
    },
    {
      "inputs": [
        {
          "internalType": "address",
          "name": "to",
          "type": "address"
        },
        {
          "internalType": "uint256",
          "name": "tokenId",
          "type": "uint256"
        }
      ],
      "name": "approve",
      "outputs": [],
      "stateMutability": "nonpayable",
      "type": "function"
    },
    {
      "inputs": [
        {
          "internalType": "address",
          "name": "owner",
          "type": "address"
        }
      ],
      "name": "balanceOf",
      "outputs": [
        {
          "internalType": "uint256",
          "name": "",
          "type": "uint256"
        }
      ],
      "stateMutability": "view",
      "type": "function"
    },
    {
      "inputs": [
        {
          "internalType": "uint256[]",
          "name": "_tokens",
          "type": "uint256[]"
        },
        {
          "internalType": "uint256",
          "name": "_price",
          "type": "uint256"
        },
        {
          "internalType": "bytes",
          "name": "_signature",
          "type": "bytes"
        }
      ],
      "name": "buy",
      "outputs": [],
      "stateMutability": "payable",
      "type": "function"
    },
    {
      "inputs": [
        {
          "internalType": "uint256",
          "name": "",
          "type": "uint256"
        }
      ],
      "name": "creaters",
      "outputs": [
        {
          "internalType": "address",
          "name": "",
          "type": "address"
        }
      ],
      "stateMutability": "view",
      "type": "function"
    },
    {
      "inputs": [
        {
          "internalType": "uint256",
          "name": "tokenId",
          "type": "uint256"
        }
      ],
      "name": "getApproved",
      "outputs": [
        {
          "internalType": "address",
          "name": "",
          "type": "address"
        }
      ],
      "stateMutability": "view",
      "type": "function"
    },
    {
      "inputs": [
        {
          "internalType": "uint256[]",
          "name": "_tokens",
          "type": "uint256[]"
        },
        {
          "internalType": "uint256",
          "name": "_price",
          "type": "uint256"
        }
      ],
      "name": "getMessageHash",
      "outputs": [
        {
          "internalType": "bytes32",
          "name": "",
          "type": "bytes32"
        }
      ],
      "stateMutability": "pure",
      "type": "function"
    },
    {
      "inputs": [
        {
          "internalType": "address",
          "name": "owner",
          "type": "address"
        },
        {
          "internalType": "address",
          "name": "operator",
          "type": "address"
        }
      ],
      "name": "isApprovedForAll",
      "outputs": [
        {
          "internalType": "bool",
          "name": "",
          "type": "bool"
        }
      ],
      "stateMutability": "view",
      "type": "function"
    },
    {
      "inputs": [],
      "name": "maxPerWallet",
      "outputs": [
        {
          "internalType": "uint256",
          "name": "",
          "type": "uint256"
        }
      ],
      "stateMutability": "view",
      "type": "function"
    },
    {
      "inputs": [],
      "name": "name",
      "outputs": [
        {
          "internalType": "string",
          "name": "",
          "type": "string"
        }
      ],
      "stateMutability": "view",
      "type": "function"
    },
    {
      "inputs": [],
      "name": "ownAddress",
      "outputs": [
        {
          "internalType": "address",
          "name": "",
          "type": "address"
        }
      ],
      "stateMutability": "view",
      "type": "function"
    },
    {
      "inputs": [
        {
          "internalType": "uint256",
          "name": "tokenId",
          "type": "uint256"
        }
      ],
      "name": "ownerOf",
      "outputs": [
        {
          "internalType": "address",
          "name": "",
          "type": "address"
        }
      ],
      "stateMutability": "view",
      "type": "function"
    },
    {
      "inputs": [
        {
          "internalType": "address",
          "name": "from",
          "type": "address"
        },
        {
          "internalType": "address",
          "name": "to",
          "type": "address"
        },
        {
          "internalType": "uint256",
          "name": "tokenId",
          "type": "uint256"
        }
      ],
      "name": "safeTransferFrom",
      "outputs": [],
      "stateMutability": "nonpayable",
      "type": "function"
    },
    {
      "inputs": [
        {
          "internalType": "address",
          "name": "from",
          "type": "address"
        },
        {
          "internalType": "address",
          "name": "to",
          "type": "address"
        },
        {
          "internalType": "uint256",
          "name": "tokenId",
          "type": "uint256"
        },
        {
          "internalType": "bytes",
          "name": "_data",
          "type": "bytes"
        }
      ],
      "name": "safeTransferFrom",
      "outputs": [],
      "stateMutability": "nonpayable",
      "type": "function"
    },
    {
      "inputs": [
        {
          "internalType": "address",
          "name": "operator",
          "type": "address"
        },
        {
          "internalType": "bool",
          "name": "approved",
          "type": "bool"
        }
      ],
      "name": "setApprovalForAll",
      "outputs": [],
      "stateMutability": "nonpayable",
      "type": "function"
    },
    {
      "inputs": [],
      "name": "signerAddress",
      "outputs": [
        {
          "internalType": "address",
          "name": "",
          "type": "address"
        }
      ],
      "stateMutability": "view",
      "type": "function"
    },
    {
      "inputs": [
        {
          "internalType": "bytes4",
          "name": "interfaceId",
          "type": "bytes4"
        }
      ],
      "name": "supportsInterface",
      "outputs": [
        {
          "internalType": "bool",
          "name": "",
          "type": "bool"
        }
      ],
      "stateMutability": "view",
      "type": "function"
    },
    {
      "inputs": [],
      "name": "symbol",
      "outputs": [
        {
          "internalType": "string",
          "name": "",
          "type": "string"
        }
      ],
      "stateMutability": "view",
      "type": "function"
    },
    {
      "inputs": [
        {
          "internalType": "uint256",
          "name": "index",
          "type": "uint256"
        }
      ],
      "name": "tokenByIndex",
      "outputs": [
        {
          "internalType": "uint256",
          "name": "",
          "type": "uint256"
        }
      ],
      "stateMutability": "view",
      "type": "function"
    },
    {
      "inputs": [
        {
          "internalType": "address",
          "name": "owner",
          "type": "address"
        },
        {
          "internalType": "uint256",
          "name": "index",
          "type": "uint256"
        }
      ],
      "name": "tokenOfOwnerByIndex",
      "outputs": [
        {
          "internalType": "uint256",
          "name": "",
          "type": "uint256"
        }
      ],
      "stateMutability": "view",
      "type": "function"
    },
    {
      "inputs": [
        {
          "internalType": "uint256",
          "name": "tokenId",
          "type": "uint256"
        }
      ],
      "name": "tokenURI",
      "outputs": [
        {
          "internalType": "string",
          "name": "",
          "type": "string"
        }
      ],
      "stateMutability": "view",
      "type": "function"
    },
    {
      "inputs": [],
      "name": "totalSales",
      "outputs": [
        {
          "internalType": "uint256",
          "name": "",
          "type": "uint256"
        }
      ],
      "stateMutability": "view",
      "type": "function"
    },
    {
      "inputs": [],
      "name": "totalSupply",
      "outputs": [
        {
          "internalType": "uint256",
          "name": "",
          "type": "uint256"
        }
      ],
      "stateMutability": "view",
      "type": "function"
    },
    {
      "inputs": [],
      "name": "totalTokens",
      "outputs": [
        {
          "internalType": "uint256",
          "name": "",
          "type": "uint256"
        }
      ],
      "stateMutability": "view",
      "type": "function"
    },
    {
      "inputs": [
        {
          "internalType": "address",
          "name": "from",
          "type": "address"
        },
        {
          "internalType": "address",
          "name": "to",
          "type": "address"
        },
        {
          "internalType": "uint256",
          "name": "tokenId",
          "type": "uint256"
        }
      ],
      "name": "transferFrom",
      "outputs": [],
      "stateMutability": "nonpayable",
      "type": "function"
    },
    {
      "inputs": [
        {
          "internalType": "uint256[]",
          "name": "_tokens",
          "type": "uint256[]"
        },
        {
          "internalType": "uint256",
          "name": "_price",
          "type": "uint256"
        },
        {
          "internalType": "bytes",
          "name": "_signature",
          "type": "bytes"
        }
      ],
      "name": "verify",
      "outputs": [
        {
          "internalType": "bool",
          "name": "",
          "type": "bool"
        }
      ],
      "stateMutability": "view",
      "type": "function"
    }
  ],
  "bytecode": "0x60a06040523480156200001157600080fd5b50604080518082018252600f81526e4e65666172696f757343727970746f60881b60208083019182528351808501909452600384526207070760eb1b90840152815191929162000064916000916200011f565b5080516200007a9060019060208401906200011f565b50507f3f41cec1e08fcbd5357e6bb873cfa4185683cf3100000000000000000000000060805250601180546001600160a01b03191673c92c1300af2e4b65062e6f7e7b94c0fbe75c0fc41790556040805180820190915260148082527f68747470733a2f2f697066732e696f2f6970667300000000000000000000000060209092019182526200010d916015916200011f565b506103e8601281905560135562000202565b8280546200012d90620001c5565b90600052602060002090601f0160209004810192826200015157600085556200019c565b82601f106200016c57805160ff19168380011785556200019c565b828001600101855582156200019c579182015b828111156200019c5782518255916020019190600101906200017f565b50620001aa929150620001ae565b5090565b5b80821115620001aa5760008155600101620001af565b600181811c90821680620001da57607f821691505b60208210811415620001fc57634e487b7160e01b600052602260045260246000fd5b50919050565b60805160601c6126bc620002286000396000818161036a01526107c801526126bc6000f3fe6080604052600436106101815760003560e01c80635b7633d0116100d157806395d89b411161008a578063c5dea23411610064578063c5dea2341461046d578063c87b56dd1461048d578063e985e9c5146104ad578063e9a96ba2146104f657600080fd5b806395d89b4114610418578063a22cb4651461042d578063b88d4fde1461044d57600080fd5b80635b7633d0146103585780636352211e1461038c5780636605ff66146103ac578063701456bc146103c257806370a08231146103e25780637e1c0c091461040257600080fd5b806323b872dd1161013e5780633eaaf86b116101185780633eaaf86b146102ec57806342842e0e14610302578063453c2310146103225780634f6ccce71461033857600080fd5b806323b872dd1461027657806324548380146102965780632f745c59146102cc57600080fd5b806301ffc9a71461018657806306fdde03146101bb578063081812fc146101dd578063095ea7b31461021557806318160ddd146102375780631afd147714610256575b600080fd5b34801561019257600080fd5b506101a66101a13660046121ce565b610509565b60405190151581526020015b60405180910390f35b3480156101c757600080fd5b506101d061051a565b6040516101b291906123f2565b3480156101e957600080fd5b506101fd6101f8366004612206565b6105ac565b6040516001600160a01b0390911681526020016101b2565b34801561022157600080fd5b506102356102303660046120f8565b610646565b005b34801561024357600080fd5b506012545b6040519081526020016101b2565b34801561026257600080fd5b506101a6610271366004612164565b61075c565b34801561028257600080fd5b5061023561029136600461201d565b61080e565b3480156102a257600080fd5b506101fd6102b1366004612206565b600e602052600090815260409020546001600160a01b031681565b3480156102d857600080fd5b506102486102e73660046120f8565b61083f565b3480156102f857600080fd5b5061024860125481565b34801561030e57600080fd5b5061023561031d36600461201d565b6108d5565b34801561032e57600080fd5b5061024860135481565b34801561034457600080fd5b50610248610353366004612206565b6108f0565b34801561036457600080fd5b506101fd7f000000000000000000000000000000000000000000000000000000000000000081565b34801561039857600080fd5b506101fd6103a7366004612206565b610991565b3480156103b857600080fd5b5061024860145481565b3480156103ce57600080fd5b506011546101fd906001600160a01b031681565b3480156103ee57600080fd5b506102486103fd366004611fca565b610a08565b34801561040e57600080fd5b50610248600a5481565b34801561042457600080fd5b506101d0610a8f565b34801561043957600080fd5b506102356104483660046120be565b610a9e565b34801561045957600080fd5b50610235610468366004612058565b610b63565b34801561047957600080fd5b50610248610488366004612121565b610b9b565b34801561049957600080fd5b506101d06104a8366004612206565b610bce565b3480156104b957600080fd5b506101a66104c8366004611feb565b6001600160a01b03918216600090815260056020908152604080832093909416825291909152205460ff1690565b610235610504366004612164565b610d59565b600061051482611068565b92915050565b60606000805461052990612567565b80601f016020809104026020016040519081016040528092919081815260200182805461055590612567565b80156105a25780601f10610577576101008083540402835291602001916105a2565b820191906000526020600020905b81548152906001019060200180831161058557829003601f168201915b5050505050905090565b6000818152600260205260408120546001600160a01b031661062a5760405162461bcd60e51b815260206004820152602c60248201527f4552433732313a20617070726f76656420717565727920666f72206e6f6e657860448201526b34b9ba32b73a103a37b5b2b760a11b60648201526084015b60405180910390fd5b506000908152600460205260409020546001600160a01b031690565b600061065182610991565b9050806001600160a01b0316836001600160a01b031614156106bf5760405162461bcd60e51b815260206004820152602160248201527f4552433732313a20617070726f76616c20746f2063757272656e74206f776e656044820152603960f91b6064820152608401610621565b336001600160a01b03821614806106db57506106db81336104c8565b61074d5760405162461bcd60e51b815260206004820152603860248201527f4552433732313a20617070726f76652063616c6c6572206973206e6f74206f7760448201527f6e6572206e6f7220617070726f76656420666f7220616c6c00000000000000006064820152608401610621565b610757838361108d565b505050565b6000806107698585610b9b565b905060006107c4826040517f19457468657265756d205369676e6564204d6573736167653a0a3332000000006020820152603c8101829052600090605c01604051602081830303815290604052805190602001209050919050565b90507f00000000000000000000000000000000000000000000000000000000000000006001600160a01b03166107fa82866110fb565b6001600160a01b0316149695505050505050565b610818338261117a565b6108345760405162461bcd60e51b815260040161062190612457565b610757838383611271565b600061084a83610a08565b82106108ac5760405162461bcd60e51b815260206004820152602b60248201527f455243373231456e756d657261626c653a206f776e657220696e646578206f7560448201526a74206f6620626f756e647360a81b6064820152608401610621565b506001600160a01b03919091166000908152600660209081526040808320938352929052205490565b61075783838360405180602001604052806000815250610b63565b60006108fb60085490565b821061095e5760405162461bcd60e51b815260206004820152602c60248201527f455243373231456e756d657261626c653a20676c6f62616c20696e646578206f60448201526b7574206f6620626f756e647360a01b6064820152608401610621565b6008828154811061097f57634e487b7160e01b600052603260045260246000fd5b90600052602060002001549050919050565b6000818152600260205260408120546001600160a01b0316806105145760405162461bcd60e51b815260206004820152602960248201527f4552433732313a206f776e657220717565727920666f72206e6f6e657869737460448201526832b73a103a37b5b2b760b91b6064820152608401610621565b60006001600160a01b038216610a735760405162461bcd60e51b815260206004820152602a60248201527f4552433732313a2062616c616e636520717565727920666f7220746865207a65604482015269726f206164647265737360b01b6064820152608401610621565b506001600160a01b031660009081526003602052604090205490565b60606001805461052990612567565b6001600160a01b038216331415610af75760405162461bcd60e51b815260206004820152601960248201527f4552433732313a20617070726f766520746f2063616c6c6572000000000000006044820152606401610621565b3360008181526005602090815260408083206001600160a01b03871680855290835292819020805460ff191686151590811790915590519081529192917f17307eab39ab6107e8899845ad3d59bd9653f200f220920489ca2b5937696c31910160405180910390a35050565b610b6d338361117a565b610b895760405162461bcd60e51b815260040161062190612457565b610b958484848461141c565b50505050565b60008282604051602001610bb0929190612266565b60405160208183030381529060405280519060200120905092915050565b604080516020808252818301909252606091600091906020820181803683375050506020818101859052604080516022808252606082019092529293506000929182018180368337019050509050601260f81b81600081518110610c4257634e487b7160e01b600052603260045260246000fd5b60200101906001600160f81b031916908160001a905350602060f81b81600181518110610c7f57634e487b7160e01b600052603260045260246000fd5b60200101906001600160f81b031916908160001a90535060005b6020811015610d2457828181518110610cc257634e487b7160e01b600052603260045260246000fd5b01602001516001600160f81b03191682610cdd8360026124d9565b81518110610cfb57634e487b7160e01b600052603260045260246000fd5b60200101906001600160f81b031916908160001a90535080610d1c816125a2565b915050610c99565b506015610d308261144f565b604051602001610d419291906122a0565b60405160208183030381529060405292505050919050565b600033610da85760405162461bcd60e51b815260206004820181905260248201527f4552433732313a206d696e7420746f20746865207a65726f20616464726573736044820152606401610621565b610db384848461075c565b610df05760405162461bcd60e51b815260206004820152600e60248201526d696e76616c696420706172616d7360901b6044820152606401610621565b60005b8451811015610f06576000858281518110610e1e57634e487b7160e01b600052603260045260246000fd5b6020908102919091018101516000818152600d9092526040909120549091506001600160a01b031615610e845760405162461bcd60e51b815260206004820152600e60248201526d185b1c9958591e481b5a5b9d195960921b6044820152606401610621565b6000818152600d602090815260408083208054336001600160a01b03199182168117909255600e9093529220805490911682179055610ec39082611645565b82610ecd816125a2565b336000908152600c602052604081208054929650919250610eed836125a2565b9190505550508080610efe906125a2565b915050610df3565b50601354336000908152600c60205260409020541115610f685760405162461bcd60e51b815260206004820152601c60248201527f796f75722077616c6c6574207265616368206f7574206c696d69742e000000006044820152606401610621565b6000610f748483612505565b905080341015610fc65760405162461bcd60e51b815260206004820152601f60248201527f76616c7565206973206c657373207468616e20746f74616c20616d6f756e74006044820152606401610621565b6011546040516000916060916001600160a01b039091169034908481818185875af1925050503d8060008114611018576040519150601f19603f3d011682016040523d82523d6000602084013e61101d565b606091505b5060405191935091507f0306912acbf130bc61cce94222a394a64e258433196a3d3679a9bbfb8973f773906110579033908a908a90612393565b60405180910390a150505050505050565b60006001600160e01b0319821663780e9d6360e01b1480610514575061051482611793565b600081815260046020526040902080546001600160a01b0319166001600160a01b03841690811790915581906110c282610991565b6001600160a01b03167f8c5be1e5ebec7d5bd14f71427d1e84f3dd0314c0f7b2291e5b200ac8c7c3b92560405160405180910390a45050565b60008060008061110a856117e3565b6040805160008152602081018083528b905260ff8316918101919091526060810184905260808101839052929550909350915060019060a0016020604051602081039080840390855afa158015611165573d6000803e3d6000fd5b5050604051601f190151979650505050505050565b6000818152600260205260408120546001600160a01b03166111f35760405162461bcd60e51b815260206004820152602c60248201527f4552433732313a206f70657261746f7220717565727920666f72206e6f6e657860448201526b34b9ba32b73a103a37b5b2b760a11b6064820152608401610621565b60006111fe83610991565b9050806001600160a01b0316846001600160a01b031614806112395750836001600160a01b031661122e846105ac565b6001600160a01b0316145b8061126957506001600160a01b0380821660009081526005602090815260408083209388168352929052205460ff165b949350505050565b826001600160a01b031661128482610991565b6001600160a01b0316146112ec5760405162461bcd60e51b815260206004820152602960248201527f4552433732313a207472616e73666572206f6620746f6b656e2074686174206960448201526839903737ba1037bbb760b91b6064820152608401610621565b6001600160a01b03821661134e5760405162461bcd60e51b8152602060048201526024808201527f4552433732313a207472616e7366657220746f20746865207a65726f206164646044820152637265737360e01b6064820152608401610621565b611359838383611857565b61136460008261108d565b6001600160a01b038316600090815260036020526040812080546001929061138d908490612524565b90915550506001600160a01b03821660009081526003602052604081208054600192906113bb9084906124d9565b909155505060008181526002602052604080822080546001600160a01b0319166001600160a01b0386811691821790925591518493918716917fddf252ad1be2c89b69c2b068fc378daa952ba7f163c4a11628f55a4df523b3ef91a4505050565b611427848484611271565b61143384848484611862565b610b955760405162461bcd60e51b815260040161062190612405565b60608151600014156114745760408051600080825260208201909252905b5092915050565b604080518181526108208101825260009160208201610800803683370190505090506000816000815181106114b957634e487b7160e01b600052603260045260246000fd5b60ff90921660209283029190910190910152600160005b845181101561162a5760008582815181106114fb57634e487b7160e01b600052603260045260246000fd5b016020015160f81c905060005b8360ff168110156115b15784818151811061153357634e487b7160e01b600052603260045260246000fd5b602002602001015160ff1661010061154b9190612505565b61155590836124d9565b9150611562603a836125dd565b85828151811061158257634e487b7160e01b600052603260045260246000fd5b60ff9092166020928302919091019091015261159f603a836124f1565b91506115aa816125a2565b9050611508565b505b8015611619576115c4603a826125dd565b848460ff16815181106115e757634e487b7160e01b600052603260045260246000fd5b60ff9092166020928302919091019091015282611603816125bd565b93506116129050603a826124f1565b90506115b3565b50611623816125a2565b90506114d0565b5061126961164061163b848461196f565b611a4b565b611b33565b6001600160a01b03821661169b5760405162461bcd60e51b815260206004820181905260248201527f4552433732313a206d696e7420746f20746865207a65726f20616464726573736044820152606401610621565b6000818152600260205260409020546001600160a01b0316156117005760405162461bcd60e51b815260206004820152601c60248201527f4552433732313a20746f6b656e20616c7265616479206d696e746564000000006044820152606401610621565b61170c60008383611857565b6001600160a01b03821660009081526003602052604081208054600192906117359084906124d9565b909155505060008181526002602052604080822080546001600160a01b0319166001600160a01b03861690811790915590518392907fddf252ad1be2c89b69c2b068fc378daa952ba7f163c4a11628f55a4df523b3ef908290a45050565b60006001600160e01b031982166380ac58cd60e01b14806117c457506001600160e01b03198216635b5e139f60e01b145b8061051457506301ffc9a760e01b6001600160e01b0319831614610514565b600080600083516041146118395760405162461bcd60e51b815260206004820152601860248201527f696e76616c6964207369676e6174757265206c656e67746800000000000000006044820152606401610621565b50505060208101516040820151606090920151909260009190911a90565b610757838383611c4e565b60006001600160a01b0384163b1561196457604051630a85bd0160e11b81526001600160a01b0385169063150b7a02906118a6903390899088908890600401612356565b602060405180830381600087803b1580156118c057600080fd5b505af19250505080156118f0575060408051601f3d908101601f191682019092526118ed918101906121ea565b60015b61194a573d80801561191e576040519150601f19603f3d011682016040523d82523d6000602084013e611923565b606091505b5080516119425760405162461bcd60e51b815260040161062190612405565b805181602001fd5b6001600160e01b031916630a85bd0160e11b149050611269565b506001949350505050565b606060008260ff1667ffffffffffffffff81111561199d57634e487b7160e01b600052604160045260246000fd5b6040519080825280602002602001820160405280156119c6578160200160208202803683370190505b50905060005b8360ff16811015611a43578481815181106119f757634e487b7160e01b600052603260045260246000fd5b6020026020010151828281518110611a1f57634e487b7160e01b600052603260045260246000fd5b60ff9092166020928302919091019091015280611a3b816125a2565b9150506119cc565b509392505050565b60606000825167ffffffffffffffff811115611a7757634e487b7160e01b600052604160045260246000fd5b604051908082528060200260200182016040528015611aa0578160200160208202803683370190505b50905060005b835181101561146d57838160018651611abf9190612524565b611ac99190612524565b81518110611ae757634e487b7160e01b600052603260045260246000fd5b6020026020010151828281518110611b0f57634e487b7160e01b600052603260045260246000fd5b60ff9092166020928302919091019091015280611b2b816125a2565b915050611aa6565b60606000825167ffffffffffffffff811115611b5f57634e487b7160e01b600052604160045260246000fd5b6040519080825280601f01601f191660200182016040528015611b89576020820181803683370190505b50905060005b835181101561146d576040518060600160405280603a815260200161264d603a9139848281518110611bd157634e487b7160e01b600052603260045260246000fd5b602002602001015160ff1681518110611bfa57634e487b7160e01b600052603260045260246000fd5b602001015160f81c60f81b828281518110611c2557634e487b7160e01b600052603260045260246000fd5b60200101906001600160f81b031916908160001a90535080611c46816125a2565b915050611b8f565b6001600160a01b038316611ca957611ca481600880546000838152600960205260408120829055600182018355919091527ff3f7a9fe364faab93b216da50a3214154f22a0a2b415b23a84c8169e8b636ee30155565b611ccc565b816001600160a01b0316836001600160a01b031614611ccc57611ccc8382611d06565b6001600160a01b038216611ce35761075781611da3565b826001600160a01b0316826001600160a01b031614610757576107578282611e7c565b60006001611d1384610a08565b611d1d9190612524565b600083815260076020526040902054909150808214611d70576001600160a01b03841660009081526006602090815260408083208584528252808320548484528184208190558352600790915290208190555b5060009182526007602090815260408084208490556001600160a01b039094168352600681528383209183525290812055565b600854600090611db590600190612524565b60008381526009602052604081205460088054939450909284908110611deb57634e487b7160e01b600052603260045260246000fd5b906000526020600020015490508060088381548110611e1a57634e487b7160e01b600052603260045260246000fd5b6000918252602080832090910192909255828152600990915260408082208490558582528120556008805480611e6057634e487b7160e01b600052603160045260246000fd5b6001900381819060005260206000200160009055905550505050565b6000611e8783610a08565b6001600160a01b039093166000908152600660209081526040808320868452825280832085905593825260079052919091209190915550565b80356001600160a01b0381168114611ed757600080fd5b919050565b600082601f830112611eec578081fd5b8135602067ffffffffffffffff821115611f0857611f0861261d565b8160051b611f178282016124a8565b838152828101908684018388018501891015611f31578687fd5b8693505b85841015611f53578035835260019390930192918401918401611f35565b50979650505050505050565b600082601f830112611f6f578081fd5b813567ffffffffffffffff811115611f8957611f8961261d565b611f9c601f8201601f19166020016124a8565b818152846020838601011115611fb0578283fd5b816020850160208301379081016020019190915292915050565b600060208284031215611fdb578081fd5b611fe482611ec0565b9392505050565b60008060408385031215611ffd578081fd5b61200683611ec0565b915061201460208401611ec0565b90509250929050565b600080600060608486031215612031578081fd5b61203a84611ec0565b925061204860208501611ec0565b9150604084013590509250925092565b6000806000806080858703121561206d578081fd5b61207685611ec0565b935061208460208601611ec0565b925060408501359150606085013567ffffffffffffffff8111156120a6578182fd5b6120b287828801611f5f565b91505092959194509250565b600080604083850312156120d0578182fd5b6120d983611ec0565b9150602083013580151581146120ed578182fd5b809150509250929050565b6000806040838503121561210a578182fd5b61211383611ec0565b946020939093013593505050565b60008060408385031215612133578182fd5b823567ffffffffffffffff811115612149578283fd5b61215585828601611edc565b95602094909401359450505050565b600080600060608486031215612178578283fd5b833567ffffffffffffffff8082111561218f578485fd5b61219b87838801611edc565b94506020860135935060408601359150808211156121b7578283fd5b506121c486828701611f5f565b9150509250925092565b6000602082840312156121df578081fd5b8135611fe481612633565b6000602082840312156121fb578081fd5b8151611fe481612633565b600060208284031215612217578081fd5b5035919050565b6000815180845261223681602086016020860161253b565b601f01601f19169290920160200192915050565b6000815161225c81856020860161253b565b9290920192915050565b825160009082906020808701845b8381101561229057815185529382019390820190600101612274565b5050948252509092019392505050565b600080845482600182811c9150808316806122bc57607f831692505b60208084108214156122dc57634e487b7160e01b87526022600452602487fd5b8180156122f057600181146123015761232d565b60ff1986168952848901965061232d565b60008b815260209020885b868110156123255781548b82015290850190830161230c565b505084890196505b50505050505061234d61234782602f60f81b815260010190565b8561224a565b95945050505050565b6001600160a01b03858116825284166020820152604081018390526080606082018190526000906123899083018461221e565b9695505050505050565b6001600160a01b038416815260606020808301829052845191830182905260009185820191906080850190845b818110156123dc578451835293830193918301916001016123c0565b5050809350505050826040830152949350505050565b602081526000611fe4602083018461221e565b60208082526032908201527f4552433732313a207472616e7366657220746f206e6f6e20455243373231526560408201527131b2b4bb32b91034b6b83632b6b2b73a32b960711b606082015260800190565b60208082526031908201527f4552433732313a207472616e736665722063616c6c6572206973206e6f74206f6040820152701ddb995c881b9bdc88185c1c1c9bdd9959607a1b606082015260800190565b604051601f8201601f1916810167ffffffffffffffff811182821017156124d1576124d161261d565b604052919050565b600082198211156124ec576124ec6125f1565b500190565b60008261250057612500612607565b500490565b600081600019048311821515161561251f5761251f6125f1565b500290565b600082821015612536576125366125f1565b500390565b60005b8381101561255657818101518382015260200161253e565b83811115610b955750506000910152565b600181811c9082168061257b57607f821691505b6020821081141561259c57634e487b7160e01b600052602260045260246000fd5b50919050565b60006000198214156125b6576125b66125f1565b5060010190565b600060ff821660ff8114156125d4576125d46125f1565b60010192915050565b6000826125ec576125ec612607565b500690565b634e487b7160e01b600052601160045260246000fd5b634e487b7160e01b600052601260045260246000fd5b634e487b7160e01b600052604160045260246000fd5b6001600160e01b03198116811461264957600080fd5b5056fe31323334353637383941424344454647484a4b4c4d4e505152535455565758595a6162636465666768696a6b6d6e6f707172737475767778797aa2646970667358221220cebd484da980d33277878f8420a9576ade5be0cdbb9ed7ccc07fdafcb31c63b464736f6c63430008040033",
  "linkReferences": {},
  "deployedLinkReferences": {}
}